{
  "_format": "hh-sol-artifact-1",
  "contractName": "Fcontracts",
  "sourceName": "contracts/Fcontracts.sol",
  "abi": [
    {
      "inputs": [
        {
          "internalType": "address",
          "name": "addr",
          "type": "address"
        }
      ],
      "name": "getFcontracts",
      "outputs": [
        {
          "internalType": "uint256",
          "name": "",
          "type": "uint256"
        }
      ],
      "stateMutability": "view",
      "type": "function"
    },
    {
      "inputs": [
        {
          "internalType": "uint256",
          "name": "fcontract",
          "type": "uint256"
        }
      ],
      "name": "updateFcontracts",
      "outputs": [],
      "stateMutability": "nonpayable",
      "type": "function"
    }
  ],
  "bytecode": "0x608060405234801561001057600080fd5b506102f3806100206000396000f3fe608060405234801561001057600080fd5b50600436106100365760003560e01c806301b141491461003b578063526825af1461006b575b600080fd5b61005560048036038101906100509190610152565b610087565b60405161006291906101b3565b60405180910390f35b6100856004803603810190610080919061017b565b6100cf565b005b60008060008373ffffffffffffffffffffffffffffffffffffffff1673ffffffffffffffffffffffffffffffffffffffff168152602001908152602001600020549050919050565b806100d933610087565b6100e391906101ce565b6000803373ffffffffffffffffffffffffffffffffffffffff1673ffffffffffffffffffffffffffffffffffffffff1681526020019081526020016000208190555050565b6000813590506101378161028f565b92915050565b60008135905061014c816102a6565b92915050565b60006020828403121561016457600080fd5b600061017284828501610128565b91505092915050565b60006020828403121561018d57600080fd5b600061019b8482850161013d565b91505092915050565b6101ad81610256565b82525050565b60006020820190506101c860008301846101a4565b92915050565b60006101d982610256565b91506101e483610256565b9250827fffffffffffffffffffffffffffffffffffffffffffffffffffffffffffffffff0382111561021957610218610260565b5b828201905092915050565b600061022f82610236565b9050919050565b600073ffffffffffffffffffffffffffffffffffffffff82169050919050565b6000819050919050565b7f4e487b7100000000000000000000000000000000000000000000000000000000600052601160045260246000fd5b61029881610224565b81146102a357600080fd5b50565b6102af81610256565b81146102ba57600080fd5b5056fea26469706673582212209b1ef9f5a3cc9cb1affcc9daa7c1ffea7932ec92ee0a03bdbf69c88796e4393564736f6c63430008000033",
  "linkReferences": {},
  "deployedLinkReferences": {}
}