{
  "contractName": "InnoAuct",
  "abi": [
    {
      "anonymous": false,
      "inputs": [
        {
          "indexed": false,
          "internalType": "uint256",
          "name": "sessionId",
          "type": "uint256"
        },
        {
          "indexed": false,
          "internalType": "address",
          "name": "bidder",
          "type": "address"
        },
        {
          "indexed": false,
          "internalType": "uint256",
          "name": "bidValue",
          "type": "uint256"
        }
      ],
      "name": "logBid",
      "type": "event"
    },
    {
      "constant": false,
      "inputs": [
        {
          "internalType": "uint256",
          "name": "startTime",
          "type": "uint256"
        },
        {
          "internalType": "uint256",
          "name": "basePrice",
          "type": "uint256"
        }
      ],
      "name": "createSession",
      "outputs": [],
      "payable": false,
      "stateMutability": "nonpayable",
      "type": "function"
    },
    {
      "constant": true,
      "inputs": [],
      "name": "allSession",
      "outputs": [
        {
          "components": [
            {
              "internalType": "address",
              "name": "owner",
              "type": "address"
            },
            {
              "internalType": "uint256",
              "name": "startTime",
              "type": "uint256"
            },
            {
              "internalType": "uint256",
              "name": "basePrice",
              "type": "uint256"
            },
            {
              "internalType": "bool",
              "name": "canceled",
              "type": "bool"
            }
          ],
          "internalType": "struct InnoAuct.Session[]",
          "name": "",
          "type": "tuple[]"
        }
      ],
      "payable": false,
      "stateMutability": "view",
      "type": "function"
    },
    {
      "constant": true,
      "inputs": [
        {
          "internalType": "uint256",
          "name": "id",
          "type": "uint256"
        }
      ],
      "name": "sessionBidderById",
      "outputs": [
        {
          "components": [
            {
              "internalType": "address payable",
              "name": "bidder",
              "type": "address"
            },
            {
              "internalType": "uint256",
              "name": "fund",
              "type": "uint256"
            }
          ],
          "internalType": "struct InnoAuct.BidderFund[]",
          "name": "",
          "type": "tuple[]"
        }
      ],
      "payable": false,
      "stateMutability": "view",
      "type": "function"
    },
    {
      "constant": false,
      "inputs": [
        {
          "internalType": "uint256",
          "name": "id",
          "type": "uint256"
        },
        {
          "internalType": "uint256",
          "name": "bidValue",
          "type": "uint256"
        }
      ],
      "name": "bid",
      "outputs": [
        {
          "internalType": "bool",
          "name": "success",
          "type": "bool"
        }
      ],
      "payable": true,
      "stateMutability": "payable",
      "type": "function"
    },
    {
      "constant": true,
      "inputs": [
        {
          "internalType": "uint256",
          "name": "id",
          "type": "uint256"
        }
      ],
      "name": "getHighestBid",
      "outputs": [
        {
          "components": [
            {
              "internalType": "address payable",
              "name": "bidder",
              "type": "address"
            },
            {
              "internalType": "uint256",
              "name": "fund",
              "type": "uint256"
            }
          ],
          "internalType": "struct InnoAuct.BidderFund",
          "name": "",
          "type": "tuple"
        }
      ],
      "payable": false,
      "stateMutability": "view",
      "type": "function"
    },
    {
      "constant": false,
      "inputs": [
        {
          "internalType": "uint256",
          "name": "id",
          "type": "uint256"
        }
      ],
      "name": "endSession",
      "outputs": [],
      "payable": false,
      "stateMutability": "nonpayable",
      "type": "function"
    },
    {
      "constant": false,
      "inputs": [
        {
          "internalType": "uint256",
          "name": "id",
          "type": "uint256"
        }
      ],
      "name": "cancelAuction",
      "outputs": [
        {
          "internalType": "bool",
          "name": "success",
          "type": "bool"
        }
      ],
      "payable": false,
      "stateMutability": "nonpayable",
      "type": "function"
    },
    {
      "constant": false,
      "inputs": [
        {
          "internalType": "uint256",
          "name": "id",
          "type": "uint256"
        }
      ],
      "name": "withdraw",
      "outputs": [
        {
          "internalType": "bool",
          "name": "success",
          "type": "bool"
        }
      ],
      "payable": false,
      "stateMutability": "nonpayable",
      "type": "function"
    }
  ],
  "bytecode": "0x60806040526000805534801561001457600080fd5b50611a30806100246000396000f3fe60806040526004361061007b5760003560e01c80637b00b2571161004e5780637b00b25714610153578063838a36c81461017c5780638f288644146101a757806396b5a755146101e45761007b565b806326cc5583146100805780632e1a7d4d146100a9578063598647f8146100e65780636657578614610116575b600080fd5b34801561008c57600080fd5b506100a760048036036100a291908101906111bf565b610221565b005b3480156100b557600080fd5b506100d060048036036100cb91908101906111bf565b61039c565b6040516100dd9190611716565b60405180910390f35b61010060048036036100fb91908101906111e8565b6105f3565b60405161010d9190611716565b60405180910390f35b34801561012257600080fd5b5061013d600480360361013891908101906111bf565b610bde565b60405161014a91906116d2565b60405180910390f35b34801561015f57600080fd5b5061017a600480360361017591908101906111e8565b610cb0565b005b34801561018857600080fd5b50610191610d91565b60405161019e91906116f4565b60405180910390f35b3480156101b357600080fd5b506101ce60048036036101c991908101906111bf565b610eb0565b6040516101db9190611871565b60405180910390f35b3480156101f057600080fd5b5061020b600480360361020691908101906111bf565b610f97565b6040516102189190611716565b60405180910390f35b8061012c6001600083815260200190815260200160002060010154014211801561026c57506001600082815260200190815260200160002060030160009054906101000a900460ff16155b6102ab576040517f08c379a00000000000000000000000000000000000000000000000000000000081526004016102a290611831565b60405180910390fd5b600060026000848152602001908152602001600020805490501415610305576040517f08c379a00000000000000000000000000000000000000000000000000000000081526004016102fc906117b1565b60405180910390fd5b6003600083815260200190815260200160002060000160009054906101000a900473ffffffffffffffffffffffffffffffffffffffff1673ffffffffffffffffffffffffffffffffffffffff166108fc60036000858152602001908152602001600020600101549081150290604051600060405180830381858888f19350505050158015610397573d6000803e3d6000fd5b505050565b60008161012c6001600083815260200190815260200160002060010154014211806103e757506001600082815260200190815260200160002060030160009054906101000a900460ff165b610426576040517f08c379a000000000000000000000000000000000000000000000000000000000815260040161041d90611811565b60405180910390fd5b600080600090506003600086815260200190815260200160002060000160009054906101000a900473ffffffffffffffffffffffffffffffffffffffff1673ffffffffffffffffffffffffffffffffffffffff163373ffffffffffffffffffffffffffffffffffffffff16146104b357339150600360008681526020019081526020016000206001015490505b3373ffffffffffffffffffffffffffffffffffffffff166108fc829081150290604051600060405180830381858888f193505050506104f7576000935050506105ed565b6000600190505b600260008781526020019081526020016000208054905081116105e5573373ffffffffffffffffffffffffffffffffffffffff1660026000888152602001908152602001600020828154811061055057fe5b906000526020600020906002020160000160009054906101000a900473ffffffffffffffffffffffffffffffffffffffff1673ffffffffffffffffffffffffffffffffffffffff1614156105d85760006002600088815260200190815260200160002082815481106105be57fe5b9060005260206000209060020201600101819055506105e5565b80806001019150506104fe565b506001935050505b50919050565b6000826001600082815260200190815260200160002060000160009054906101000a900473ffffffffffffffffffffffffffffffffffffffff1673ffffffffffffffffffffffffffffffffffffffff163373ffffffffffffffffffffffffffffffffffffffff16141561069b576040517f08c379a000000000000000000000000000000000000000000000000000000000815260040161069290611731565b60405180910390fd5b83600160008281526020019081526020016000206001015442116106f4576040517f08c379a00000000000000000000000000000000000000000000000000000000081526004016106eb906117d1565b60405180910390fd5b8461012c6001600083815260200190815260200160002060010154014210610751576040517f08c379a000000000000000000000000000000000000000000000000000000000815260040161074890611851565b60405180910390fd5b856001600082815260200190815260200160002060030160009054906101000a900460ff16156107b6576040517f08c379a00000000000000000000000000000000000000000000000000000000081526004016107ad90611771565b60405180910390fd5b600160008881526020019081526020016000206002015486101561080f576040517f08c379a000000000000000000000000000000000000000000000000000000000815260040161080690611751565b60405180910390fd5b60036000888152602001908152602001600020600101548611610867576040517f08c379a000000000000000000000000000000000000000000000000000000000815260040161085e90611791565b60405180910390fd5b60405180604001604052803373ffffffffffffffffffffffffffffffffffffffff168152602001878152506003600089815260200190815260200160002060008201518160000160006101000a81548173ffffffffffffffffffffffffffffffffffffffff021916908373ffffffffffffffffffffffffffffffffffffffff160217905550602082015181600101559050506000600260008981526020019081526020016000208054905014156109da576002600088815260200190815260200160002060405180604001604052803373ffffffffffffffffffffffffffffffffffffffff168152602001888152509080600181540180825580915050906001820390600052602060002090600202016000909192909190915060008201518160000160006101000a81548173ffffffffffffffffffffffffffffffffffffffff021916908373ffffffffffffffffffffffffffffffffffffffff16021790555060208201518160010155505050610b95565b60008090505b6002600089815260200190815260200160002080549050811015610b935760008090503373ffffffffffffffffffffffffffffffffffffffff16600260008b81526020019081526020016000208381548110610a3857fe5b906000526020600020906002020160000160009054906101000a900473ffffffffffffffffffffffffffffffffffffffff1673ffffffffffffffffffffffffffffffffffffffff161415610ac45787600260008b81526020019081526020016000208381548110610aa557fe5b9060005260206000209060020201600101819055506001905050610b93565b80610b8757600260008a815260200190815260200160002060405180604001604052803373ffffffffffffffffffffffffffffffffffffffff1681526020018a8152509080600181540180825580915050906001820390600052602060002090600202016000909192909190915060008201518160000160006101000a81548173ffffffffffffffffffffffffffffffffffffffff021916908373ffffffffffffffffffffffffffffffffffffffff160217905550602082015181600101555050505b508060010190506109e0565b505b7f421eefe9a277adebdfd8b559de97f5e2565858321f728cfcbf835c39e4ae9da6873388604051610bc89392919061188c565b60405180910390a1600194505050505092915050565b606060026000838152602001908152602001600020805480602002602001604051908101604052809291908181526020016000905b82821015610ca557838290600052602060002090600202016040518060400160405290816000820160009054906101000a900473ffffffffffffffffffffffffffffffffffffffff1673ffffffffffffffffffffffffffffffffffffffff1673ffffffffffffffffffffffffffffffffffffffff16815260200160018201548152505081526020019060010190610c13565b505050509050919050565b60405180608001604052803373ffffffffffffffffffffffffffffffffffffffff16815260200183815260200182815260200160001515815250600160008054815260200190815260200160002060008201518160000160006101000a81548173ffffffffffffffffffffffffffffffffffffffff021916908373ffffffffffffffffffffffffffffffffffffffff160217905550602082015181600101556040820151816002015560608201518160030160006101000a81548160ff02191690831515021790555090505060008081548092919060010191905055505050565b606080600054604051908082528060200260200182016040528015610dd057816020015b610dbd61113a565b815260200190600190039081610db55790505b50905060008090505b600054811015610ea857600160008281526020019081526020016000206040518060800160405290816000820160009054906101000a900473ffffffffffffffffffffffffffffffffffffffff1673ffffffffffffffffffffffffffffffffffffffff1673ffffffffffffffffffffffffffffffffffffffff16815260200160018201548152602001600282015481526020016003820160009054906101000a900460ff161515151581525050828281518110610e9257fe5b6020026020010181905250806001019050610dd9565b508091505090565b610eb861117a565b600060026000848152602001908152602001600020805490501415610f12576040517f08c379a0000000000000000000000000000000000000000000000000000000008152600401610f09906117b1565b60405180910390fd5b600360008381526020019081526020016000206040518060400160405290816000820160009054906101000a900473ffffffffffffffffffffffffffffffffffffffff1673ffffffffffffffffffffffffffffffffffffffff1673ffffffffffffffffffffffffffffffffffffffff1681526020016001820154815250509050919050565b6000816001600082815260200190815260200160002060000160009054906101000a900473ffffffffffffffffffffffffffffffffffffffff1673ffffffffffffffffffffffffffffffffffffffff163373ffffffffffffffffffffffffffffffffffffffff161461103e576040517f08c379a0000000000000000000000000000000000000000000000000000000008152600401611035906117f1565b60405180910390fd5b8261012c600160008381526020019081526020016000206001015401421061109b576040517f08c379a000000000000000000000000000000000000000000000000000000000815260040161109290611851565b60405180910390fd5b836001600082815260200190815260200160002060030160009054906101000a900460ff1615611100576040517f08c379a00000000000000000000000000000000000000000000000000000000081526004016110f790611771565b60405180910390fd5b600180600087815260200190815260200160002060030160006101000a81548160ff02191690831515021790555060019350505050919050565b6040518060800160405280600073ffffffffffffffffffffffffffffffffffffffff16815260200160008152602001600081526020016000151581525090565b6040518060400160405280600073ffffffffffffffffffffffffffffffffffffffff168152602001600081525090565b6000813590506111b9816119d6565b92915050565b6000602082840312156111d157600080fd5b60006111df848285016111aa565b91505092915050565b600080604083850312156111fb57600080fd5b6000611209858286016111aa565b925050602061121a858286016111aa565b9150509250929050565b60006112308383611630565b60408301905092915050565b6000611248838361165f565b60808301905092915050565b61125d816119a0565b82525050565b61126c81611958565b82525050565b61127b81611946565b82525050565b600061128c826118e3565b6112968185611913565b93506112a1836118c3565b8060005b838110156112d25781516112b98882611224565b97506112c4836118f9565b9250506001810190506112a5565b5085935050505092915050565b60006112ea826118ee565b6112f48185611924565b93506112ff836118d3565b8060005b83811015611330578151611317888261123c565b975061132283611906565b925050600181019050611303565b5085935050505092915050565b6113468161196a565b82525050565b6113558161196a565b82525050565b6000611368601183611935565b91507f4d5553545f42455f4e4f545f4f574e45520000000000000000000000000000006000830152602082019050919050565b60006113a8601783611935565b91507f534d414c4c45525f5448414e5f424153455f50524943450000000000000000006000830152602082019050919050565b60006113e8601483611935565b91507f53455353494f4e5f5741535f43414e43454c45440000000000000000000000006000830152602082019050919050565b6000611428601a83611935565b91507f534d414c4c45525f5448414e5f484947484553545f50524943450000000000006000830152602082019050919050565b6000611468601883611935565b91507f4e4f5f4f4e455f4a4f494e5f544849535f53455353494f4e00000000000000006000830152602082019050919050565b60006114a8601783611935565b91507f53455353494f4e5f4841535f4e4f545f535441525445440000000000000000006000830152602082019050919050565b60006114e8600d83611935565b91507f4d5553545f42455f4f574e4552000000000000000000000000000000000000006000830152602082019050919050565b6000611528601683611935565b91507f53455353494f4e5f49535f5354494c4c5f414c495645000000000000000000006000830152602082019050919050565b6000611568602a83611935565b91507f53455353494f4e5f4841535f4e4f545f454e4445445f4f525f4841535f42454560008301527f4e5f43414e43454c4544000000000000000000000000000000000000000000006020830152604082019050919050565b60006115ce600d83611935565b91507f53455353494f4e5f454e444544000000000000000000000000000000000000006000830152602082019050919050565b6040820160008201516116176000850182611263565b50602082015161162a60208501826116b4565b50505050565b6040820160008201516116466000850182611263565b50602082015161165960208501826116b4565b50505050565b6080820160008201516116756000850182611272565b50602082015161168860208501826116b4565b50604082015161169b60408501826116b4565b5060608201516116ae606085018261133d565b50505050565b6116bd81611996565b82525050565b6116cc81611996565b82525050565b600060208201905081810360008301526116ec8184611281565b905092915050565b6000602082019050818103600083015261170e81846112df565b905092915050565b600060208201905061172b600083018461134c565b92915050565b6000602082019050818103600083015261174a8161135b565b9050919050565b6000602082019050818103600083015261176a8161139b565b9050919050565b6000602082019050818103600083015261178a816113db565b9050919050565b600060208201905081810360008301526117aa8161141b565b9050919050565b600060208201905081810360008301526117ca8161145b565b9050919050565b600060208201905081810360008301526117ea8161149b565b9050919050565b6000602082019050818103600083015261180a816114db565b9050919050565b6000602082019050818103600083015261182a8161151b565b9050919050565b6000602082019050818103600083015261184a8161155b565b9050919050565b6000602082019050818103600083015261186a816115c1565b9050919050565b60006040820190506118866000830184611601565b92915050565b60006060820190506118a160008301866116c3565b6118ae6020830185611254565b6118bb60408301846116c3565b949350505050565b6000819050602082019050919050565b6000819050602082019050919050565b600081519050919050565b600081519050919050565b6000602082019050919050565b6000602082019050919050565b600082825260208201905092915050565b600082825260208201905092915050565b600082825260208201905092915050565b600061195182611976565b9050919050565b600061196382611976565b9050919050565b60008115159050919050565b600073ffffffffffffffffffffffffffffffffffffffff82169050919050565b6000819050919050565b60006119ab826119b2565b9050919050565b60006119bd826119c4565b9050919050565b60006119cf82611976565b9050919050565b6119df81611996565b81146119ea57600080fd5b5056fea365627a7a72315820c8b85eb5987ad4b33273dc661015952e1c82e8d6116cab2757608029e1514b3e6c6578706572696d656e74616cf564736f6c63430005100040",
  "source": "// SPDX-License-Identifier: MIT\r\npragma solidity >=0.5.16 <0.9.0;\r\npragma experimental ABIEncoderV2;\r\n\r\ncontract InnoAuct {\r\n    //variable\r\n    uint sessionCount = 0;\r\n    mapping(uint => Session) sessions;\r\n    mapping(uint => BidderFund[]) sessionBidder;\r\n    mapping(uint => BidderFund) sessionHighestBidder;\r\n\r\n    struct Session {\r\n        address owner;\r\n        uint startTime;\r\n        uint basePrice;\r\n        bool canceled;\r\n    }\r\n\r\n    struct BidderFund {\r\n        address payable bidder;\r\n        uint256 fund;\r\n    }\r\n\r\n    //events\r\n    event logBid(uint sessionId, address bidder, uint bidValue);\r\n\r\n    //create an auction session\r\n    function createSession(uint startTime, uint basePrice) public {\r\n        sessions[sessionCount] = Session(msg.sender, startTime, basePrice, false);\r\n        sessionCount++;\r\n    }\r\n \r\n    //get all auction session\r\n    function allSession() public view returns (Session[] memory) {\r\n        Session[] memory allSessions = new Session[](sessionCount);\r\n        for (uint i = 0; i < sessionCount; ++i) {\r\n            allSessions[i] = sessions[i];\r\n        }\r\n        return allSessions;\r\n    }\r\n\r\n    //get all session bidder by id\r\n    function sessionBidderById(uint id) public view returns (BidderFund[] memory) {\r\n        return sessionBidder[id];\r\n    }\r\n\r\n    //place a bidding value onto the table\r\n    function bid(uint id, uint bidValue) \r\n        public\r\n        payable\r\n        onlyNotOwner(id)\r\n        onlyAfterStart(id)\r\n        onlyBeforeEnd(id)\r\n        onlyNotCanceled(id)\r\n        returns (bool success) {\r\n            require(bidValue >= sessions[id].basePrice, \"SMALLER_THAN_BASE_PRICE\");\r\n            require(bidValue > sessionHighestBidder[id].fund, \"SMALLER_THAN_HIGHEST_PRICE\");\r\n\r\n            sessionHighestBidder[id] = BidderFund(msg.sender, bidValue);\r\n            if (sessionBidder[id].length == 0) {\r\n                sessionBidder[id].push(BidderFund(msg.sender, bidValue));\r\n            } else {\r\n                for (uint i = 0; i < sessionBidder[id].length; ++i) {\r\n                    bool existed = false;\r\n                    if (sessionBidder[id][i].bidder == msg.sender) {\r\n                        sessionBidder[id][i].fund = bidValue;\r\n                        existed = true;\r\n                        break;\r\n                    }\r\n                    if (!existed) {\r\n                        sessionBidder[id].push(BidderFund(msg.sender, bidValue));\r\n                    }\r\n                }\r\n            }\r\n\r\n            emit logBid(id, msg.sender, bidValue);\r\n            return true;\r\n    }\r\n\r\n    \r\n    //get highest bidder\r\n    function getHighestBid(uint id)\r\n        public \r\n        view\r\n        returns (BidderFund memory)\r\n    {\r\n        \r\n        if (sessionBidder[id].length == 0) {\r\n            revert(\"NO_ONE_JOIN_THIS_SESSION\");\r\n        } else {\r\n            return sessionHighestBidder[id];\r\n        }\r\n    }\r\n\r\n    //end the session\r\n    function endSession(uint id) \r\n    public\r\n    onlyEndedAndNotCanceled(id)\r\n    {\r\n        if (sessionBidder[id].length == 0) {\r\n            revert(\"NO_ONE_JOIN_THIS_SESSION\");\r\n        } else {\r\n            sessionHighestBidder[id].bidder.transfer(sessionHighestBidder[id].fund);\r\n        }\r\n    }\r\n\r\n    //cancel auction session\r\n    function cancelAuction(uint id)\r\n        public\r\n        onlyOwner(id)\r\n        onlyBeforeEnd(id)\r\n        onlyNotCanceled(id)\r\n        returns (bool success)\r\n    {\r\n        sessions[id].canceled = true;\r\n        return true;\r\n    }\r\n\r\n    //withdraw the funds\r\n    function withdraw(uint id)\r\n        public\r\n        onlyEndedOrCanceled(id)\r\n        returns (bool success)\r\n    {\r\n        address withdrawalAccount;\r\n        uint withdrawalAmount = 0;\r\n\r\n        if (msg.sender != sessionHighestBidder[id].bidder) {\r\n            withdrawalAccount = msg.sender;\r\n            withdrawalAmount = sessionHighestBidder[id].fund;\r\n        }\r\n\r\n        // send the funds\r\n        if (!address(uint160(msg.sender)).send(withdrawalAmount)) {\r\n            return false;\r\n        }\r\n\r\n        for (uint i = 1; i <= sessionBidder[id].length; i++) {\r\n            if (sessionBidder[id][i].bidder == msg.sender) {\r\n                sessionBidder[id][i].fund = 0;\r\n                break;\r\n            }\r\n        }\r\n\r\n        return true;\r\n    }\r\n\r\n    modifier onlyOwner(uint sessionId) {\r\n        require(msg.sender == sessions[sessionId].owner, \"MUST_BE_OWNER\");\r\n        _;\r\n    }\r\n\r\n    modifier onlyNotOwner(uint sessionId) {\r\n        require(msg.sender != sessions[sessionId].owner, \"MUST_BE_NOT_OWNER\");\r\n        _;\r\n    }\r\n\r\n    modifier onlyAfterStart(uint sessionId) {\r\n        require(block.timestamp > sessions[sessionId].startTime, \"SESSION_HAS_NOT_STARTED\");\r\n        _;\r\n    }\r\n\r\n    modifier onlyBeforeEnd(uint sessionId) {\r\n        require(block.timestamp < sessions[sessionId].startTime + (5*60), \"SESSION_ENDED\");\r\n        _;\r\n    }\r\n\r\n    modifier onlyNotCanceled(uint sessionId) {\r\n        require(!sessions[sessionId].canceled, \"SESSION_WAS_CANCELED\");\r\n        _;\r\n    }\r\n\r\n    modifier onlyEndedAndNotCanceled(uint sessionId) {\r\n        require((block.timestamp > sessions[sessionId].startTime + (5*60)) && !sessions[sessionId].canceled, \"SESSION_HAS_NOT_ENDED_OR_HAS_BEEN_CANCELED\");\r\n        _;\r\n    }\r\n\r\n    modifier onlyEndedOrCanceled(uint sessionId) {\r\n        require((block.timestamp > sessions[sessionId].startTime + (5*60)) || sessions[sessionId].canceled, \"SESSION_IS_STILL_ALIVE\");\r\n        _;\r\n    }\r\n}",
  "sourcePath": "F:\\Code\\InnoAuct\\contracts\\InnoAuct.sol",
  "compiler": {
    "name": "solc",
    "version": "0.5.16+commit.9c3226ce.Emscripten.clang"
  },
  "schemaVersion": "3.4.4",
  "updatedAt": "2022-05-11T11:19:06.236Z",
  "networkType": "ethereum",
  "devdoc": {
    "methods": {}
  },
  "userdoc": {
    "methods": {}
  }
}